:020000040000FA
:020000009F2A35
:08000800AB000308AC00040882
:10001000AD0083120C106400FB308F002C308E007A
:1000200099309F007A2039308400A7201F10831652
:100030009101870183124C304A0784000008A70011
:100040008722CA0A4A08033A0319CA01A408031DF1
:1000500069288030B9070318B80F2F28B70A370866
:10006000AF003808B0004508B1004608B200822051
:10007000A120A1203408BB003508BC00B701B8019D
:10008000B9014808BC024708031C470FBB0203180C
:100090004B28BB01BC013D3084000310490D0F39D2
:1000A00084070008A200840A0008A3003C08A302F9
:1000B0003B08031C3B0FA202A208031DA317031851
:1000C0006428A201A3016428A308031D8516232127
:1000D000732824080739031D7328A30803197228FD
:1000E000A30B73288512A40A2C0883002D08840012
:1000F0002B0809007B287C287D289F149F187E28C8
:100100000C130800B601B501B401B301A70110300A
:10011000A000AF0CB00C031C9828A7013108B3074E
:100120000318A70A3208B4070318B30F9828A70AC0
:100130000310A70CB30CB40CB50CB60CA00B89289B
:1001400008000310B30CB40CB50CB60C08008316F1
:100150001E08831280071E08840303181E0F8007E1
:1001600084030318800A0800290E29070F39831811
:10017000163E8318063E063E831CFA3E291A1B3E95
:10018000831CFA3EA91A303E291B603EA91B203E63
:10019000603ECF01CF0D4F1CA03ED0006630281826
:1001A000BC30D0070318CF0A0301031C6038831C3E
:1001B0000638D0026630A8187830D0070318CF0A66
:1001C0000301031C6038831C0638D002290D280D5A
:1001D000A818013ECF0708004F0803190B30CE00C6
:1001E0005008500E0F39031DF828CF0803190B30A3
:1001F000CD0050080F39CC0008000508AE000301FF
:10020000531CFF30A7007822851005108316851433
:10021000051483128518D1140518511483168510FE
:10022000051083122E0885000800640083161C1533
:1002300055309D00AA309D009C149C181D291C154A
:100240008C1383120800FD2051080739A7000130E4
:100250008A0027088207E929C829D929B129E9296B
:1002600071293329B12901308A0052088207E9290E
:1002700041293B293E2946308400472948308400E3
:1002800047293E3084000310490D0F398407A60A20
:100290000130A00026080A3A031D52290930A600A1
:1002A0000A30A0000008A90084030008A800A90AD9
:1002B0000319A80A2908E83A031D64292808033A03
:1002C000031D6429A901A801A00B57292808800053
:1002D000840A290880000008A90084030008A800F7
:1002E000EA2901308A0052088207E9297F29792901
:1002F0007C294630840085294830840085293E3099
:1003000084000310490D0F398407A60A0130A000AC
:1003100026080A3A031D90290930A6000A30A000D9
:100320000008A90084030008A800A9032908FF3ACF
:100330000319A8032808FF3A031DA2290330A800C7
:10034000E730A900A00B952928088000840A290815
:1003500080000008A90084030008A800EA29D2014F
:10036000E9290F30A600D20A5208023A0319BC2923
:100370005208043A031DEA29D201D1115111D110BA
:1003800051108B1364220C100C18C3298B17152ADB
:10039000491ACD29BA0803198516A60A2608083A6B
:1003A000031DEA29A6010230D200D1150F30A600A4
:1003B000EA29A60A2608023A031D3B2AA601C90A11
:1003C00049080F39043A031D3B2A4908F039C9008E
:1003D0003B2AA601D2080319EF295115F029511122
:1003E000D110511001308A0052088207FA29032ADD
:1003F000FA29FA290330D4003C08A9003B08A800D8
:10040000B420EC20112A0030D4003D3084000310C9
:10041000490D0F3984070008A800840A0008A900C4
:10042000002A26080F3A031D4B2AA6010330D400E8
:1004300002308A0052088207202A4B2A262A2D2AB7
:100440000F30CC00CE000330CD004B2A0C30CE0054
:100450001030CD001130CC004B2A0530CE001130C9
:10046000CD000030CC004B2AD11051104708A80015
:100470004808A900002AD11051100030D4003D30A6
:1004800084000310490D0F3984070008A800840A6E
:100490000008A900002A0800A0018B138316200879
:1004A0009B001C141A08A70083123D30200784000B
:1004B00027088000A00A20080D3A031D4E2A0C10C0
:1004C0000C185F2A8B170800A00164003D3020073C
:1004D00084000008A700200883169B0027089A00C4
:1004E00083121521A00A20080D3A031D652A080071
:1004F0000830A0008711A70C031887158716000085
:100500008712A00B7A2A07160000071208000508B8
:10051000F839AE0003015318073007392E0485005F
:1005200002308A002708D322A7004A085406031D78
:100530009A2AA7115318A7097822E72208008316E0
:10054000FF2390008312850187018316CF3081003D
:100550008312C0308B000130900083165030910020
:1005600085010530870095018312073099002130FD
:1005700084003A30A0008001840AA003031DBB2A36
:1005800083160C1410309F008312831605158312F6
:100590005310051953148316051183120130A4005A
:1005A0004C226400D12A82070A346F34583449340B
:1005B0002D34893488344F34083409340C34FF34F2
:1005C0009A342C341C34FD34FC34EC34AC34D20872
:1005D0000319EC2AA41FF72A02308A004A08F822DD
:1005E000A7005318A709073027052E048500080027
:0805F0008207043402340134D7
:02400E001C3F55
:104200000000B4000000C8000000F0000100180029
:0A4210000400000000000000100090
:00000001FF
